:100000000C941E040C9450110C943B040C94E510B9
:100010000C943B040C943B040C943B040C943B0464
:100020000C943B040C943B040C943B040C9477110B
:100030000C943B040C943B040C943B040C943B0444
:100040000C9496110C943B040C943B040C943B04CC
:100050000C943B046E616E00696E6600030AFC3E00
:100060000000000000000000000000000000000090
:100070000000000000000000000000000000000080
:100080000000000000000000000000000000000070
:100090000000000000000000000000000000000060
:1000A0000000000000000000000000000000000050
:1000B0000000000000000000000000000000000937
:1000C00010000080F8FEFEFC3808007CFF3F0F01A6
:1000D0000000000000000000000000000000000020
:1000E0000000000000000000000000000000000010
:1000F0000000000000000000000000000000000000
:1001000000000000000000000000000000000000EF
:1001100000000000000000000000000000000000DF
:1001200000000F1100000000C0E0F0FCFEFEF8F03F
:10013000C0800000307CFFFFFF7F3F1F0F070301DF
:1001400000000000000001000000000000000000AE
:10015000000000000000000000000000000000009F
:10016000000000000000000000000000000000008F
:10017000000000000000000000000000000000007F
:10018000000000000011130000000080C0E0E0F05B
:10019000F8F8FCFEFCE00000000C1E7FFFFFFFFFF4
:1001A000FFFF7F7F3F3F1F1F080000000000030389
:1001B000010000000000000000000000000000003E
:1001C000000000000000000000000000000000002F
:1001D000000000000000000000000000000000001F
:1001E0000000000000000000111200E0E0F0F0F05C
:1001F000F8F8F8FCFCFCFEFEFEFFFE00010F7FFF9E
:10020000FFFFFFFFFFFFFFFFFFFFFF7F000000007A
:1002100003010101010000000000000000000000D7
:1002200000000000000000000000000000000000CE
:1002300000000000000000000000000000000000BE
:100240000000000000000000000000131300FEFE8C
:10025000FEFFFFFFFFFFFFFFFFFFFFFFFE7E0E0021
:1002600000FFFFFFFFFFFFFFFFFFFFFFFFFF1F0379
:100270000000000001010101010101030303030764
:10028000000000000000000000000000000000006E
:10029000000000000000000000000000000000005E
:1002A000000000000000000000000000000018181E
:1002B0000000000000F0FEFFFEFEFEFCFCFCF8F873
:1002C000F8F0F0F0E0E0C0000000C0F8FFFFFFFF32
:1002D000FFFFFFFFFFFFFFFFFF7F3F0F0701000052
:1002E0000006070F0F1F1F3F3F7FFF7F3F1F0703C2
:1002F00000000000000000000000000000000000FE
:1003000000000000000000000000000000000000ED
:10031000001D1B000000000000000000C0E0F0FC19
:10032000FEFFFEFCFCF8F0F0E0C0800000000000E2
:1003300000000080E0F0FCFEFFFFFFFFFFFFFFFF7B
:10034000FFFFFFFFFFFFFF7F7F3F1E1C0000060F28
:100350001F3F7FFFFFFFFFFFFFFF7F3F1F1F0F07B5
:100360000303010000000000000000000000000086
:1003700000010303201A000000000000000000003C
:10038000008080C0E0F0F0F8FCFEFEFCF8F0C080D9
:100390000000000000008080C0E0E0F0F8FCFCFEFF
:1003A000FFFFFFFFFFFFFFFFFFFFFFFFFFFFFFFF5D
:1003B000FEFCF0E0800001030F3FFFFFFFFFFFFFA7
:1003C000FF7F7F7F3F3F3F1F1F1F0F0F0F07070755
:1003D00003030301010100211500000000008080DB
:1003E00080C0C0C0C0E0E0F0F0F0F8F8F8F8FCFC25
:1003F000FCFEFEFFFEF8C000000006FEFFFFFFFF50
:10040000FFFFFFFFFFFFFFFFFFFFFFFFFFFFFFFFFC
:10041000FFFFFFFFFFFFFFFFFCE00000001F1F1FAB
:100420001F1F1F1F1F1F1F1F1F1F1F1F1F1F1F1FDC
:100430001F1F1F1F1F1F1F1F1F1F0808080000006E
:100440000000000000000000000000065F5F0600E2
:1004500000000007070007070000147F7F147F7F5C
:100460001400242E6B6B3A120000466630180C669E
:100470006200307A4F5D377A4800040703000000BD
:100480000000001C3E63410000000041633E1C0070
:100490000000082A3E1C1C3E2A0808083E3E0808A8
:1004A00000000080E060000000000808080808085C
:1004B000000000006060000000006030180C0603BF
:1004C00001003E7F4149417F3E0040427F7F4040E6
:1004D0000000627359496F660000226349497F3604
:1004E0000000181C16537F7F5000276745457D3953
:1004F00000003C7E4B4979300000030371790F07FF
:100500000000367F49497F360000064F49693F1E8B
:10051000000000006666000000000080E666000043
:100520000000081C366341000000242424242424F5
:100530000000004163361C080000020351590F06F9
:1005400000003E7F415D5D1F1E007C7E13137E7C9C
:100550000000417F7F49497F36001C3E6341416373
:100560002200417F7F41633E1C00417F7F495D4106
:100570006300417F7F491D0103001C3E63415173AD
:1005800072007F7F08087F7F000000417F7F41006D
:100590000000307040417F3F0100417F7F081C77A1
:1005A0006300417F7F41406070007F7F0E1C0E7FA3
:1005B0007F007F7F060C187F7F001C3E6341633EF7
:1005C0001C00417F7F49090F06001E3F21717F5E9D
:1005D0000000417F7F09197F6600266F4D597332F5
:1005E000000003417F7F410300007F7F40407F7F09
:1005F00000001F3F60603F1F00007F7F3018307F8A
:100600007F0043673C183C674300074F78784F07EB
:100610000000476371594D677300007F7F414100BF
:1006200000000103060C183060000041417F7F008C
:100630000000080C0603060C080080808080808083
:1006400080800000030704000000207454543C78AC
:100650004000417F3F4848783000387C44446C2853
:100660000000307848493F7F4000387C54545C1883
:100670000000487E7F490302000098BCA4A4F87CD7
:100680000400417F7F08047C780000447D7D4000A9
:10069000000060E08080FD7D0000417F7F10386CAD
:1006A000440000417F7F400000007C7C18381C7CA7
:1006B00078007C7C04047C780000387C44447C38DE
:1006C000000084FCF8A4243C1800183C24A4F8FC86
:1006D0008400447C784C041C1800485C54547424F6
:1006E000000000043E7F442400003C7C40403C7CF1
:1006F00040001C3C60603C1C00003C7C7038707CFE
:100700003C00446C3810386C44009CBCA0A0FC7CBD
:1007100000004C64745C4C64000008083E77414162
:1007200000000000007F7F0000004141773E080884
:1007300000000203010302030100000000000000AA
:10074000000000407A10F35A00A0724E1809001001
:10075000A5D4E80000E87648170000E40B54020036
:1007600000CA9A3B000000E1F50500008096980061
:10077000000040420F000000A0860100000010278A
:1007800000000000E803000000006400000000001A
:100790000A00000000000100000000002C76D8884C
:1007A000DC674F0823DFC1DFAE59E1B1B796E5E35F
:1007B000E453C63AE651997696E8E6C28426EB8978
:1007C0008C9B62ED407C6FFCEFBC9C9F40F2BAA515
:1007D0006FA5F490055A2AF75C936B6CF9676DC1AD
:1007E0001BFCE0E40D47FEF520E6B500D0ED902EB1
:1007F0000300943577050080841E080000204E0A0F
:10080000000000C80C333333330F986E128311414C
:10081000EF8D2114893BE65516CFFEE6DB18D18417
:100820004B381BF77C1D901DA4BBE424203284723E
:100830005E228100C9F124ECA1E53D2711241FBEF1
:10084000CFE5D8E0DEBFCDBF11E0A0E6B0E0E4E048
:10085000F4E302C005900D92A433B107D9F711E07B
:10086000A4E3B1E001C01D92A83FB107E1F70E94E7
:100870002F150C94001A0C940000E091DD00F0E0BC
:10088000EE0FFF1FEE5AFE4F0190F081E02D09940C
:1008900010924D0180EE87B910924E018FEC86B90F
:1008A000089510924D0181EE87B981E080934E0149
:1008B0008FEC86B90895F894AD98AB988823C1F071
:1008C000AA9AAB9A88E005C0AA98AB9A660F8150A5
:1008D00041F0AB9867FFF8CFAA9AAB9A660F8150A8
:1008E000C1F7AD9A80915001882309F0789408955A
:1008F000AA98E7CFCF92DF92EF92FF920F931F93C8
:10090000CF93DF93E82E481708F4E42ED82F8417EE
:1009100008F4D42FF62E261708F4F22EC62F6217ED
:1009200008F4C22F6BE280E00E945B046E2D81E030
:100930000E945B046D2F81E00E945B046AE280E00C
:100940000E945B046F2D81E00E945B046C2F81E0AC
:100950000E945B046CE280E00E945B048D2F90E0BB
:100960008E19910901962C2F30E02F1931092F5F34
:100970003F4F829F7001839FF00C929FF00C1124D7
:10098000F7FC39C0F594E794F7FC29C0B8017595D8
:100990006795759567957595679575956795C62E55
:1009A000812F8F70D82EC80182959295907F9827BD
:1009B000807F9827D82AC0E0D0E0AD986C2D81E0E8
:1009C0000E945B046D2D81E00E945B04602F81E03A
:1009D0000E945B04AD9A2196EC16FD0674F760E068
:1009E00080E0DF91CF911F910F91FF90EF90DF900A
:1009F000CF900C945B048FEFE81AF80AC3CFCF9323
:100A0000DF93D82FC62F6BE280E00E945B046D2F2E
:100A100081E00E945B046D2F81E00E945B046AE22A
:100A200080E00E945B046C2F81E00E945B046C2FCD
:100A300081E0DF91CF910C945B04CF93DF93EA01C7
:100A40000E94FF046CE280E00E945B04AD98BE014E
:100A5000759567957595679575956795759567957E
:100A600081E00E945B046D2F6F70CE01829592959C
:100A7000907F9827807F9827682B81E00E945B04F5
:100A80006C2F81E00E945B04AD9A60E080E0DF9112
:100A9000CF910C945B046F927F928F929F92AF9252
:100AA000BF92CF92DF92EF92FF920F931F93CF935B
:100AB000DF93A82EB62E642E722EC22ED12CC61A0B
:100AC000D108E42EF12CE81AF108D7FC50C0882494
:100AD0008394F7FC53C099249394CC0CDD1CEE0C4A
:100AE000FF1CA8016B2D8A2D0E941D05CE14DF046A
:100AF00034F5C70195958795E601C81BD90B6A1493
:100B000079F0D7FD03C0B80CCE19DF09A90CCC0DC4
:100B1000DD1DA8016B2D8A2D0E941D056A10F1CFE5
:100B2000DF91CF911F910F91FF90EF90DF90CF90C9
:100B3000BF90AF909F908F907F906F900895C60167
:100B400095958795E701C81BD90B7B1449F3D7FD11
:100B500003C0A90CCC19DD09B80CCE0DDF1DA8010E
:100B60006B2D8A2D0E941D057B10F1CFD9CFD1941A
:100B7000C194D10888248A94F7FEADCFF194E19412
:100B8000F10899249A94A9CF0F931F9384B38C638F
:100B900084BBAD98AA98AB9AAC9AAC988FE39CE9C9
:100BA0000197F1F700C00000AC9A8FE39CE9019730
:100BB000F1F700C00000AB9AAA9AAB9A61E080E01E
:100BC0000E945B0461E180E00E945B0463E080E0DE
:100BD0000E945B048FE19EE40197F1F700C00000E2
:100BE00069E280E00E945B0463E180E00E945B04B4
:100BF0006BE280E00E945B0460E081E00E945B04A5
:100C000063E881E00E945B046AE280E00E945B048A
:100C100060E081E00E945B0463E881E00E945B0485
:100C20008FE097E20197F1F700C000006CE280E0EE
:100C30000E945B049FE728E381E0915020408040C0
:100C4000E1F700C0000060E280E00E945B046AE31C
:100C500080E00E945B0463E081E00E945B0466E345
:100C600080E00E945B0460E081E00E945B0465E23A
:100C700080E00E945B046DE281E00E945B0468E218
:100C800080E00E945B0400E010E023E843E860E0BD
:100C900080E00E947A0469E280E01F910F910C9439
:100CA0005B04CF92DF92EF92FF920F931F93CF934B
:100CB000DF93C82ED62ED42FC22F0130F9F0870132
:100CC000262F0E944B052C2F4D2F6C2F8C2D0E9410
:100CD0004B052C2F4C2D6D2D8C2D0E944B052C2F50
:100CE0004D2F6D2D8D2F0E944B05DF91CF911F91C0
:100CF0000F91FF90EF90DF90CF90089587010E94B1
:100D00007A04F3CF2F923F924F925F926F927F922D
:100D10008F929F92AF92BF92CF92DF92EF92FF920B
:100D20000F931F93CF93DF93982E862EA42EE90165
:100D3000C42ED12C01E010E00C191D09D194C194EE
:100D4000D108CC0CDD1C542E560EA901652D0E9435
:100D50001D05382C3A18AE01632D892D0E941D0502
:100D60006A2C690CAE01682D862D0E941D05492C48
:100D70004A18AE01682D842D0E941D05AA2009F491
:100D800051C0A3E0EA2EF12CBB24B39401C0B82ECD
:100D900017FD0EC0AA9482E0C80ED11C0C0D1D1DBB
:100DA0005A2C580C382C3A186A2C690C492C4A18C1
:100DB0000E0D1F1D2B2C290CAE01652D822D0E94BE
:100DC0001D05792C7B18AE01652D872D0E941D0510
:100DD000AE01632D822D0E941D05AE01632D872D6E
:100DE0000E941D057B2C780CAE01672D862D0E947C
:100DF0001D05AE01672D842D0E941D05782C7B18E2
:100E0000AE01672D862D0E941D05AE01672D842D34
:100E10000E941D0581E08B0D92E0E90EF11CBA14D1
:100E200008F4B5CFDF91CF911F910F91FF90EF9014
:100E3000DF90CF90BF90AF909F908F907F906F90FA
:100E40005F904F903F902F9008952F923F924F9236
:100E50005F926F927F928F929F92AF92BF92CF924A
:100E6000DF92EF92FF920F931F93CF93DF9300D007
:100E700000D0CDB7DEB74983922E832E702E512E2F
:100E800087FD63C0EAE3F4E0E491AE2EB12CEBE31E
:100E9000F4E0E491EE2EF12CECE3F4E0E49190E048
:100EA0004F97E89F8001E99F100D1124065C1B4FAE
:100EB000A114B10481F1C12CD12C68506A83F801CE
:100EC000EC0DFD1D3490E114F104F9F029802C0C97
:100ED0006A8080E8482E20E030E011C0472D552D73
:100EE000622D862D2B833C830E941D0546942B8109
:100EF0003C812F5F3F4F6A942E153F0530F4842DBF
:100F0000832161F3492D582DEBCF8FEFC81AD80AF2
:100F1000CA14DB04A0F260E080E00F900F900F9005
:100F20000F90DF91CF911F910F91FF90EF90DF9085
:100F3000CF90BF90AF909F908F907F906F905F9079
:100F40004F903F902F900C945B0480549BCF8F92D6
:100F50009F92BF92CF92DF92EF92FF920F931F93D7
:100F6000CF93DF931F92CDB7DEB7B62E542F690112
:100F700078014C010CC087019601452F6B2D5983D8
:100F80000E9425075981585F83E88B1528F0F401EA
:100F900081914F018111EFCF0F90DF91CF911F9180
:100FA0000F91FF90EF90DF90CF90BF909F908F9028
:100FB00008950F931F930FEF1FE020E03FE04AE0FA
:100FC0006AE58AE091E00E94A7071F910F910895BA
:100FD0000F931F930FEF1FE020EF30E04AE06AE528
:100FE0008AE091E00E94A7071F910F9108950F9347
:100FF0001F930FEF1FE02FE030E04AE06AE58AE040
:1010000091E00E94A7071F910F9108950F931F93DE
:101010000FEF1FE022E23BE04AE06AE58AE091E060
:101020000E94A7071F910F9108950F931F930FEF31
:101030001FE020E03FE04AE06AE58AE091E00E949C
:10104000A7071F910F9108950F931F930FEF1FE0B4
:1010500020EF30E04AE06AE58AE091E00E94A707CD
:101060001F910F9108950F931F930FEF1FE02FE033
:1010700030E04AE06AE58AE091E00E94A7071F910C
:101080000F9108952F923F924F925F927F928F928D
:101090009F92AF92BF92CF92DF92EF92FF920F9307
:1010A0001F93CF93DF9300D000D01F92CDB7DEB750
:1010B000962E842E8901FC01E490F12C31966491E6
:1010C0006C01F2E0CF0ED11C70E0769567957695B5
:1010D00067957695679580E090E00E944E160E9495
:1010E000A31569837A838B839C8328E0920EA12CBD
:1010F000B12CB501882777FD8095982F0E94501656
:1011000029813A814B815C810E94B61587FF30C0EE
:10111000E114F10439F1412C512CF601E40DF51DD7
:10112000749090E020E8222E342C380C04C02694D1
:101130009150983F79F0822D8721C9F3A801632D42
:10114000892D890F9D830E941D059D8126949150B4
:10115000983F89F78FEF481A580A4E145F04E8F257
:10116000CE0CDF1CEFEFAE1ABE0AF8E09F0EC1CF27
:1011700060E080E00F900F900F900F900F90DF9144
:10118000CF911F910F91FF90EF90DF90CF90BF9084
:10119000AF909F908F907F905F904F903F902F9057
:1011A0000C945B04EF92FF920F931F93CF93DF9306
:1011B000D82FC62FE42EF22E6BE280E00E945B0453
:1011C0006D2F81E00E945B046FEF6E0D6D0F81E06B
:1011D0000E945B046AE280E00E945B046C2F81E065
:1011E0000E945B046FEF6F0D6C0F81E00E945B0447
:1011F0006CE280E00E945B04EF9C90011124359525
:10120000279512161306FCF4E901CC0FDD1FC20F5F
:10121000D31FC00FD11FAD98F801649181E00E94E7
:101220005B04F8013196649181E00E945B040D5FDC
:101230001F4FF8013197649181E00E945B04AD9AE1
:10124000C017D10741F760E080E0DF91CF911F9197
:101250000F91FF90EF900C945B0482E080B983E0E3
:1012600081B986B7846086BF089584EA86BF06B6D2
:1012700007FEFDCF089584E986BF06B604FCFDCFC6
:10128000089583B984E886BF06B607FEFDCF81B115
:10129000887F883159F081B1887F883239F091B1E7
:1012A000987F81E0903419F080E0089581E00895FE
:1012B00026B76623B9F0206426BF26B7206826BF6C
:1012C00006B607FEFDCF21B1287F283531F021B1C8
:1012D000287F203511F080E0089523B1FC012083A0
:1012E00081E008952F7B26BFE8CF1F93CF93DF9334
:1012F000182FEB0194EA96BF06B607FEFDCF80EDEE
:101300000E944109811105C080E0DF91CF911F91BA
:101310000895812F0E9441098823B1F384EA86BF92
:1013200006B607FEFDCF81ED0E944109882361F3D7
:1013300060E0CE010E945809882331F384E986BF1A
:1013400006B604FCFDCF81E0E0CFCF93DF93C82F3A
:10135000D62F94EA96BF06B607FEFDCF80ED0E9419
:101360004109811104C080E0DF91CF9108958C2F55
:101370000E9441098823B9F38D2F0E9441098823D7
:1013800091F384E986BF06B604FCFDCF81E0ECCF83
:101390000F931F93CF93DF931F92CDB7DEB78C01CE
:1013A00084EA86BF06B607FEFDCF80ED0E944109A4
:1013B000811108C080E090E00F90DF91CF911F91E4
:1013C0000F91089580E00E944109882399F384EAEF
:1013D00086BF06B607FEFDCF81ED0E944109882336
:1013E00049F361E0CE0101960E9458098981982F46
:1013F00092959F708F702AE0929F800D1124F801C2
:10140000808361E0CE0101960E9458098981982F5E
:1014100092959F708F70FAE09F9F800D1124F801C4
:10142000818361E0CE0101960E9458098981982F3D
:1014300092959F708F70FAE09F9F800D1124F801A4
:10144000828361E0CE0101960E9458098981982F1C
:1014500092959F708F70FAE09F9F800D1124F80184
:10146000838361E0CE0101960E9458098981982FFB
:1014700092959F708F70FAE09F9F800D1124F80164
:10148000848361E0CE0101960E9458098981982FDA
:1014900092959F708F70FAE09F9F800D1124F80144
:1014A000858360E0CE0101960E9458098981282F2A
:1014B00022952F708F7090E0FAE02F9F800D911D84
:1014C0001124F8019783868384E986BF06B604FC5D
:1014D000FDCF81E090E070CF0F931F93962F4423B0
:1014E00011F0211103C01F910F9108953FEF380FA4
:1014F000340F4FEF460F420F232F682F892F0E9482
:101500007A041F910F910895EF92FF920F931F930A
:10151000962F442311F0211105C01F910F91FF90C8
:10152000EF9008953FEF380F340F4FEF460F420F03
:10153000780100E0232F682F892F0E9451061F9108
:101540000F91FF90EF900895EF92FF920F931F93EA
:10155000CF93DF93CDB7DEB72A970FB6F894DEBFEF
:101560000FBECDBF9F938F937F936F9380E191E0E8
:101570009F938F93CE0101967C01FF928F930E94DF
:1015800080190FEF1FE020E030E04AE06CE7C70170
:101590000E94A7070FB6F894DEBF0FBECDBF2A96F4
:1015A0000FB6F894DEBF0FBECDBFDF91CF911F9174
:1015B0000F91FF90EF900895EF92FF920F931F937A
:1015C000CF93DF93CDB7DEB72A970FB6F894DEBF7F
:1015D0000FBECDBF1F928F9383E191E09F938F93B6
:1015E000CE0101967C01FF928F930E9480190FEF2C
:1015F0001FE020E030E04AE068E6C7010E94A7074C
:101600000F900F900F900F900F900F902A960FB69B
:10161000F894DEBF0FBECDBFDF91CF911F910F9128
:10162000FF90EF900895EF92FF920F931F93CF9347
:10163000DF93CDB7DEB72A970FB6F894DEBF0FBEA3
:10164000CDBF1F928F9389E191E09F938F93CE013D
:1016500001967C01FF928F930E9480190FEF1FE08B
:1016600020E030E04AE062E7C7010E94A7070F9040
:101670000F900F900F900F900F902A960FB6F8943E
:10168000DEBF0FBECDBFDF91CF911F910F91FF90B5
:10169000EF900895EF92FF920F931F93CF93DF93F4
:1016A000CDB7DEB72A970FB6F894DEBF0FBECDBF19
:1016B0001F928F9389E191E09F938F93CE010196C2
:1016C0007C01FF928F930E9480190FEF1FE020E0B2
:1016D00030E04AE06CE7C7010E94A7070F900F9027
:1016E0000F900F900F900F902A960FB6F894DEBFD0
:1016F0000FBECDBFDF91CF911F910F91FF90EF9063
:101700000895EF92FF920F931F93CF93DF93CDB77E
:10171000DEB72A970FB6F894DEBF0FBECDBF9F93FA
:101720008F938FE191E09F938F93CE0101967C017F
:10173000FF928F930E9480190FEF1FE020E030E0AE
:101740004AE06CE7C7010E94A7070F900F900F9027
:101750000F900F900F902A960FB6F894DEBF0FBE31
:10176000CDBFDF91CF911F910F91FF90EF90089522
:101770000F931F930FEF1FE020E030E04AE06CE78B
:101780000E94A7071F910F91089584E190E00895AA
:1017900080E190E00895CF93DF93CDB7DEB7C159D4
:1017A000D1090FB6F894DEBF0FBECDBF46E45FE6A9
:1017B0006FE670E049835A836B837C8342E451E691
:1017C00062E770E0498B5A8B6B8B7C8B42E451E66D
:1017D0006AE770E049A35AA36BA37CA342E45FE6E7
:1017E0006FE670E049AB5AAB6BAB7CAB29ED37E0F1
:1017F000CF57DF4F39832883C158D04028EE37E0D8
:10180000CD57DF4F39832883C358D04027EF37E0C7
:10181000CB57DF4F39832883C558D04026E038E0C6
:10182000C957DF4F39832883C758D04024E0CF56AB
:10183000DF4F2883C159D04021E9FE013196DC01F8
:1018400001900D922A95E1F7CF56DF4F0FB6F8942D
:10185000DEBF0FBECDBFDF91CF910895E82FF0E03E
:10186000CF01880F991FDC01AA50BF4F4C914D5FEB
:1018700011965C915E5F662381F0DC01AE51BF4F33
:101880002D913C9163E66E9FC0016F9F900D1124D6
:10189000652F845A9F4F0C9442082EEE3EE0F2CF03
:1018A0001F93CF93DF93DFEFD80FC0914A011FEF53
:1018B0001C0F10934A011D1778F4DC1748F061E003
:1018C0008C2F0E942E0CD0934A01CF5FDC17B8F703
:1018D000DF91CF911F910895D117D0F7CD2F60E000
:1018E0008C2F0E942E0CD0934A01CF5F1C17B8F7A3
:1018F000DF91CF911F9108958AE080934A0181E0A2
:1019000090E00C94500CEF92FF920F93E3E3EE2ED5
:10191000E3E0FE2E00E02FE74DE068E682E00E9463
:10192000510621E84AE060E885E00E945106EE2475
:10193000EA94FFE0FF2E2EE74CE069E683E00E9488
:1019400051060F91FF90EF900895FF920F931F9310
:10195000CF93DF9380913801C091D800D0E024E18B
:10196000829FC0011124BE010E94D617882777FDEF
:101970008095982F0E9450160E94A3150E9422164F
:10198000F62E80913901845C8093380130913601C4
:10199000F316D1F094E19F15B8F024E6829FC001C0
:1019A0001124BE010E94D617609337013F1590F4B1
:1019B0008F2D831BF9F48F2D0E94DC0A8091390151
:1019C0000E944A0BF0923601DF91CF911F910F9147
:1019D000FF900895F31678F73F1969F36AE66F0DE3
:1019E000232F260F21500FEF1FE04BE084E00E94D1
:1019F0007A04E1CF29E6230F280F6AE6630F03EB91
:101A000019E04BE084E00E947A04D5CFEF92FF9278
:101A10000F931F93CF93DF93E82E86E08E0DA0E8FF
:101A2000FA2EF61A8A01282F40E8682F8F2D0E947F
:101A30004B0567E06E0D262F40E88F2D0E944B0569
:101A400068E06E0D262F40E88F2D0E944B05DF9138
:101A5000CF911F910F91FF90EF900895EF92FF9219
:101A60000F931F93CF93C5E00DED1DE02C2F40E8A1
:101A70006C2F80E50E944B05C45FCD37A9F7C0E508
:101A80000DED1DE02DE74C2F65E08C2F0E944B05DE
:101A9000C45FC038A9F7BAEAEB2EBAE0FB2E00E02B
:101AA0002EE741E865E080E50E945106CF911F9145
:101AB0000F91FF90EF9008955F926F927F928F92B7
:101AC0009F92AF92BF92CF92DF92EF92FF920F93CD
:101AD0001F93CF93DF930E942E0DC0E6CC2EC0E063
:101AE000DC2EE60110E3E12EF12C66246A9404E674
:101AF00010E08AEA882E912C95E5A92EB12C33C0EE
:101B00006A5A24E6629FC0011124B5010E94D617CB
:101B1000669EC001679E900D1124B8010E94D617E1
:101B2000882777FD8095982F0E9450160E94B6173F
:101B30009B01AC0160E070E08FE793E40E943E15EA
:101B40000E942216607F462F50E080E09FE0482BE5
:101B5000592B672D852D0E94060D249680E0C83DE7
:101B6000D80709F440C05C2E5C18788024E6729E89
:101B7000C0011124B7010E94D617669EC001679E5E
:101B8000900D1124B8010E94D617882777FD809503
:101B9000982F0E9450160E94B6170E9422166B3A88
:101BA00008F0AECF24E6629FC0011124B4010E9468
:101BB000D617669EC001679E900D1124B8010E9441
:101BC000D617882777FD8095982F0E9450160E947F
:101BD000B6170E942216607F20E1629FC001112487
:101BE00040EF50E0B4CFDF91CF911F910F91FF9064
:101BF000EF90DF90CF90BF90AF909F908F907F90AD
:101C00006F905F900895FF920F931F93CF93DF9390
:101C1000EC016D5F660F862F880F880F860F27EF08
:101C2000F22EF80E4423B1F040EF480F02E21BE021
:101C30002EE765E08A510E947A042FEF3FE047E0EB
:101C40006F2DCE010E94A707DF91CF911F910F91B9
:101C5000FF90089540EF480F0FEF1FE02EE765E07B
:101C60008A510E947A0422E23BE0E9CF0F931F934E
:101C7000CF93DF93CDB7DEB70FEF1FE023E843E844
:101C800060E080E00E947A04C956DF4F8881C7591E
:101C9000D0408823E9F110E041E08091DD00181385
:101CA00040E0612F87E090E08C0F9D1F20E1129FA4
:101CB000800D911D11240E94030E1F5FC956DF4F36
:101CC0000881C759D040101738F38FEF800F8093E9
:101CD0004B0180E1089FA0011124BE01695F7F4F85
:101CE00081E791E00E943A19002369F0DE01A957CB
:101CF000BF4FE2E5F1E020E08D919D9181939193BA
:101D00002F5F2013F9CFDF91CF911F910F9108958D
:101D10008FEF80934B01F7CFCF93C82F6091DD00F9
:101D20006817A9F020E1629FC001112440E08F589C
:101D30009E4F0E94030E20E1C29FC001112441E08A
:101D40006C2F8F589E4F0E94030EC093DD00CF91E1
:101D500008958091DD00811104C080914B010C94A5
:101D60008C0E81500C948C0E8091DD0090914B0173
:101D7000891718F080E00C948C0E8F5F0C948C0EF9
:101D80000F931F93CF93DF930E94830C8AE080937D
:101D90004A0181E090E00E94500C80E090E00E94B7
:101DA000A50CC1E0D0E00AE010E003C0C436D105C4
:101DB00081F0CE010E94A50C2196CE01B8010E94AF
:101DC000D617892B99F7862F0E94500CC436D1055F
:101DD00081F7DF91CF911F910F9108950895813080
:101DE00011F40E94C00E0C94C00EEF92FF920F935C
:101DF0001F93CF93DF93CDB7DEB72A970FB6F89432
:101E0000DEBF0FBECDBF88E691E00E94C809809179
:101E10006901909151018917A1F190916A011F9276
:101E20008F931F929F9389E291E09F938F93CE01AE
:101E300001967C01FF928F930E9480190FEF1FE0A3
:101E400020E030E045E062E1C7010E94A7078091F1
:101E500069018093510180916A018093F7010FB667
:101E6000F894DEBF0FBECDBF2A960FB6F894DEBF42
:101E70000FBECDBFDF91CF911F910F91FF90EF90DB
:101E8000089590916A012091F7019213C8CFECCF89
:101E90004F925F926F927F928F929F92AF92BF927A
:101EA000CF92DF92EF92FF920F931F93CF93DF9326
:101EB000CDB7DEB72A970FB6F894DEBF0FBECDBF01
:101EC0006091D9007091DA008091DB009091DC0084
:101ED0006F5F7F4F8F4F9F4F6093D9007093DA00F1
:101EE0008093DB009093DC0020E13EE040E050E096
:101EF0000E94EA174B015C01CA01B9010E944E160B
:101F00000E948B166B017C01C501B4012CE330E00B
:101F100040E050E00E94EA172B013C01CA01B901E0
:101F20000E944E160E948B164B015C01C301B20148
:101F30000E944E160E948B160E9422161F926F93CB
:101F4000C501B4010E9422161F926F93C701B6010A
:101F50000E9422161F926F9384E291E09F938F93C9
:101F6000CE0101967C01FF928F930E9480190FEFA2
:101F70001FE020E030E045E062E3C7010E94A707D0
:101F80000FB6F894DEBF0FBECDBF2A960FB6F894F9
:101F9000DEBF0FBECDBFDF91CF911F910F91FF909C
:101FA000EF90DF90CF90BF90AF909F908F907F90F9
:101FB0006F905F904F900895CF93DF9396B3C82FA3
:101FC000D0E0892F90E0C152DF4F088002C0959584
:101FD00087950A94E2F780FF03C0DF91CF910895BF
:101FE0008FE19EE40197F1F700C00000FB01099525
:101FF00021E030E0088002C0220F331F0A94E2F78C
:1020000086B390E082239323892BD1F3DF91CF9184
:1020100008951F93CF93DF93EC0110E069917991BC
:10202000812F0E94DC0F1F5F1330C1F7DF91CF912A
:102030001F91089580914D0181110C9448040895D9
:1020400080914D0181110C945104089508952091BF
:10205000340199E8299F912D11249695969596958E
:10206000892F880F890F982F990F990F980F29138F
:1020700005C080914D01811118C0089595E0299FF8
:10208000912D1124822F891B8695890F8295869523
:1020900087709FE3899F201911242111EECF809131
:1020A0004D01882351F30C9451040C9448040F9370
:1020B0001F930E94C4050FEF1FE023E843E860E090
:1020C00080E00E947A041F910F91089585E198E0C5
:1020D0009093F2018093F10184E298E09093F401EF
:1020E0008093F30183E398E09093F6018093F501E8
:1020F00089EA9EE0909363018093620184EB9EE005
:1021000090936501809364018DE394E0909367015F
:1021100080936601089582E080B983E081B986B733
:10212000846086BF60E187E00E94A5090C94F50EEB
:10213000F89417BA8FE088BB11BA84E082BB80E4C0
:1021400084BF90E29BBF8BBF1FBC85E08EBD8DE03E
:1021500083BF8FEF8CBF81E089BF9FE896B98093E2
:102160004D010E94480480914D0181110E9451044B
:102170000E94571085E198E09093F2018093F1015D
:1021800084E298E09093F4018093F30183E398E074
:102190009093F6018093F50189EA9EE090936301A4
:1021A0008093620184EB9EE09093650180936401CB
:1021B0008DE394E090936701809366010E948B10F9
:1021C00081E080935001789408951F920F920FB68A
:1021D0000F9211240F931F932F933F934F935F936D
:1021E0006F937F938F939F93AF93BF93CF93DF931F
:1021F000EF93FF93809150018823E9F1CCB5DDB5D1
:102200001DBC1CBCBE0180E090E00E944E169B01EC
:10221000AC0160E07FEF8FE797E40E94BA1521EDF3
:1022200038E645E452E40E9453172CEB34E743E1CF
:102230005DE30E94531760934601709347018093BA
:102240004801909349010FEF1FE023E843E860E065
:102250008AE50E947A04609146017091470180915D
:102260004801909149010E942216862F0E94DC0AA3
:102270008C2F0E94130BFF91EF91DF91CF91BF91B3
:10228000AF919F918F917F916F915F914F913F910E
:102290002F911F910F910F900FBE0F901F901895C7
:1022A0001F920F920FB60F9211242F933F934F93CB
:1022B0005F936F937F938F939F93AF93BF93EF93AE
:1022C000FF938091500181110E94F50EFF91EF91D3
:1022D000BF91AF919F918F917F916F915F914F913E
:1022E0003F912F910F900FBE0F901F9018951F9246
:1022F0000F920FB60F9211248F9380915001882373
:1023000039F0809134018F3F49F08F5F8093340121
:102310008F910F900FBE0F901F901895109234015F
:102320008F910F900FBE0F901F9018951F920F92D4
:102330000FB60F9211248F9380915001882351F092
:1023400080914E0181110CC085B18093390181E0EB
:1023500080934D018F910F900FBE0F901F90189595
:1023600085B180933501F3CFA3E1B0E0EAEBF1E171
:102370000C940C187C011B016A01FC011782168267
:10238000838181FF66C3BE016F5F7F4F4B01F70101
:102390009381F10193FD859193FF81911F01882322
:1023A00009F453C3853239F493FD859193FF8191EC
:1023B0001F01853239F4B70190E00E944E19560191
:1023C0006501E5CF10E0512C20E02032A0F48B32E3
:1023D00069F030F4803259F0833269F420612CC006
:1023E0008D3239F0803339F4216026C022602460B8
:1023F00023C0286021C027FD27C030ED380F3A30B8
:1024000078F426FF06C0FAE01F9F300D1124132F29
:1024100013C06AE0569E300D1124532E20620CC06A
:102420008E3221F426FD11C3206406C08C3611F4CF
:10243000206802C0883641F4F10193FD859193FF35
:1024400081911F018111C1CF9BEB980F933018F43C
:102450002061805E06C09BE9980F933008F0AAC106
:102460002F7E26FF16E02F73722E853621F4F22F71
:10247000F0647F2E08C0863621F4622F6068762EC5
:1024800002C01111115077FE07C01C3348F44424D8
:102490004394410E27E00BC0183030F4212F06C0C2
:1024A00027E04CE3442E03C027E017E0412C5601FF
:1024B00074E0A70EB11CF601608171818281938165
:1024C000042DA4010E9457186C01098100FF02C06D
:1024D00003FF06C071FC07C072FC08C0612C08C075
:1024E0003DE2632E05C02BE2622E02C090E2692E0F
:1024F000802F8C7099F1662011F084E001C083E098
:10250000851510F0512C0BC0581A73FC08C0B70188
:1025100080E290E00E944E195A94C9F7F3CF6620EA
:1025200029F0B701862D90E00E944E1903FD03C0EB
:1025300008E510E002C004E510E0F72DF0717F2EF1
:10254000F8018491882309F476C271108052B70192
:1025500090E00E944E190F5F1F4FF2CF77FE0FC021
:102560004C0C04FF04C08A81813309F44A9414148A
:1025700074F5F8E0F41578F588E0482E2CC076FC68
:102580002AC0812F90E08C159D059CF06CEFC6163B
:102590006FEFD60674F0772D7068772E0AC0E2E0F0
:1025A000F0E0EC0FFD1FE10FF11D8081803319F485
:1025B00011501111F4CF77FE0EC044244394410E04
:1025C000812F90E0C816D9062CF41C1904C04424AD
:1025D000439401C010E077FE07C01C141D043CF4B6
:1025E00096012F5F3F4F05C025E030E002C021E09B
:1025F00030E0662011F02F5F3F4F112331F0412F63
:1026000050E04F5F5F4F240F351F452D50E02417DA
:10261000350714F4521A01C0512C872D897049F4E2
:10262000552039F0B70180E290E00E944E195A948B
:10263000F7CF662029F0B701862D90E00E944E1951
:1026400073FC09C0552039F0B70180E390E00E9487
:102650004E195A94F7CF77FE5FC09C2D8D2DD7FE73
:1026600002C090E080E0692E782E40E050E0C60184
:10267000841991099D878C87960126193709280DA1
:10268000391D812F90E0EE27FF27E81BF90BFF870C
:10269000EE87FFEF6F167F0669F4B7018EE290E0D8
:1026A0002B8B3A8B488B598B0E944E19598948893C
:1026B0003A892B89C614D70454F06C857D8566153C
:1026C00077052CF4F901E40FF51F818101C080E347
:1026D00071E0671A71084F5F5F4FEE85FF856E16D8
:1026E0007F066CF0B70190E02B8B3A8B488B598BAF
:1026F0000E944E192B893A8948895989CACF6C148E
:102700007D0439F49A81963318F4953311F404FF5B
:1027100081E3B70190E04BC08A81813309F00F7EDD
:10272000B70190E00E944E19111105C074FE18C047
:1027300085E490E017C0B7018EE290E00E944E1948
:1027400082E066246394680EF401E80FF11D808135
:10275000B70190E00E944E19115041F3862DF1CF40
:1027600085E690E0B7010E944E19D7FC05C0C11460
:10277000D10439F404FF05C0D194C194D1088DE28D
:1027800001C08BE2B70190E00E944E1980E36AE03D
:10279000C616D1042CF08F5FFAE0CF1AD108F7CF1C
:1027A000B70190E00E944E19B701C601C0960E9481
:1027B0004E1941C1833631F0833779F0833509F002
:1027C00058C021C0560172E0A70EB11CF6018081ED
:1027D000898301E010E0640114C05601F2E0AF0EFD
:1027E000B11CF601C080D18026FF03C0612F70E0CC
:1027F00002C06FEF7FEFC6012B8B0E9443198C0143
:102800002B892F7715C05601F2E0AF0EB11CF601EF
:10281000C080D18026FF03C0612F70E002C06FEF3F
:102820007FEFC6012B8B0E942F198C012B8920680A
:10283000722E23FD1AC0852D90E008171907A8F401
:10284000B70180E290E00E944E195A94F4CFF6014D
:1028500077FC859177FE81916F01B70190E00E942E
:102860004E1951105A94015011090115110579F7AB
:10287000E2C0843611F0893651F5560127FF09C0B0
:10288000F4E0AF0EB11CF601608171818281938109
:102890000AC0F2E0AF0EB11CF60160817181882799
:1028A00077FD8095982F022F0F7697FF08C090959F
:1028B0008095709561957F4F8F4F9F4F00682AE0FC
:1028C00030E0A4010E94A219C82EC8183EC0022FF1
:1028D000853721F40F7E2AE030E01DC0097F8F3656
:1028E00091F018F4883559F0B0C0803719F0883766
:1028F00011F0ABC0006104FF09C0046007C024FFF1
:1029000008C0066006C028E030E005C020E130E0E5
:1029100002C020E132E0560107FF09C0F4E0AF0E2B
:10292000B11CF601608171818281938108C0F2E05F
:10293000AF0EB11CF6016081718180E090E0A401CE
:102940000E94A219C82EC8180F7706FF0BC0202FAF
:102950002E7FC11650F404FF0AC002FD08C0202FCC
:102960002E7E05C0DC2C202F03C0DC2C01C0D12E14
:1029700024FF0DC0FE01EC0DF11D8081803311F4A8
:10298000297E09C022FF06C0D394D39404C0822FAD
:10299000867809F0D39423FD13C020FF06C01C2DB8
:1029A000D51418F4150D1D19D52CD51468F4B701DC
:1029B00080E290E02B8B0E944E19D3942B89F5CFA7
:1029C000D51410F45D1801C0512C24FF12C0B701BA
:1029D00080E390E02B8B0E944E192B8922FF17C0B9
:1029E00021FF03C088E590E002C088E790E0B701CE
:1029F0000CC0822F867859F021FD02C080E201C010
:102A00008BE227FD8DE2B70190E00E944E19C116BE
:102A100038F4B70180E390E00E944E191150F7CFCF
:102A2000CA94F401EC0DF11D8081B70190E00E9481
:102A30004E19C110F5CF552009F4C2CCB70180E280
:102A400090E00E944E195A94F6CFF7018681978143
:102A500002C08FEF9FEF6396E2E10C9428180E946A
:102A600098100E94830C0E9427100E94A50C8FE1F1
:102A70009EE40197F1F700C00000F5CF5058BB2746
:102A8000AA270ED0BFC1B0D130F0B5D120F031F4BB
:102A90009F3F11F41EF4A5C10EF4E095E7FB72C14F
:102AA000E92FC1D180F3BA1762077307840795072E
:102AB00018F071F49EF5F0C10EF4E0950B2EBA2FCC
:102AC000A02D0B01B90190010C01CA01A001112434
:102AD000FF27591B99F0593F50F4503E68F11A16E0
:102AE000F040A22F232F342F4427585FF3CF469571
:102AF00037952795A795F0405395C9F77EF41F1693
:102B0000BA0B620B730B840BBAF09150A1F0FF0F5C
:102B1000BB1F661F771F881FC2F70EC0BA0F621F48
:102B2000731F841F48F4879577956795B795F79538
:102B30009E3F08F0B3CF9395880F08F09927EE0FCA
:102B400097958795089591D180F09F3740F4911122
:102B50000EF4A3C160E070E080E89FE3089526F0E2
:102B60001B16611D711D811D13C12DC1E7D008F415
:102B700081E008950CD046C13ED140F035D130F00F
:102B800021F45F3F19F0FEC0511187C12AC14BD11A
:102B900098F39923C9F35523B1F3951B550BBB2724
:102BA000AA2762177307840738F09F5F5F4F220FD1
:102BB000331F441FAA1FA9F333D00E2E3AF0E0E8CA
:102BC00030D091505040E695001CCAF729D0FE2F16
:102BD00027D0660F771F881FBB1F261737074807A8
:102BE000AB07B0E809F0BB0B802DBF01FF2793585E
:102BF0005F4F2AF09E3F510568F0C4C04EC15F3F51
:102C0000ECF3983EDCF3869577956795B795F79545
:102C10009F5FC9F7880F911D9695879597F908953D
:102C2000E1E0660F771F881FBB1F621773078407D9
:102C3000BA0720F0621B730B840BBA0BEE1F88F7E8
:102C4000E0950895F8D088F09F5790F0B92F992714
:102C5000B751A0F0D1F0660F771F881F991F1AF0A7
:102C6000BA95C9F712C0B13081F016D1B1E008951C
:102C700013C1672F782F8827B85F39F0B93FCCF39D
:102C8000869577956795B395D9F73EF4909580959D
:102C9000709561957F4F8F4F9F4F0895E89409C0BD
:102CA00097FB3EF490958095709561957F4F8F4F7F
:102CB0009F4F9923A9F0F92F96E9BB279395F69595
:102CC000879577956795B795F111F8CFFAF4BB0F13
:102CD00011F460FF1BC06F5F7F4F8F4F9F4F16C077
:102CE000882311F096E911C0772321F09EE8872F01
:102CF000762F05C0662371F096E8862F70E060E0BD
:102D00002AF09A95660F771F881FDAF7880F969535
:102D1000879597F90895A9D080F09F3740F49111D5
:102D20000EF0BBC060E070E080E89FEB089526F4F1
:102D30001B16611D711D811D2BC045C0990F000818
:102D4000550FAA0BE0E8FEEF16161706E807F9077D
:102D5000C0F012161306E407F50798F0621B730B18
:102D6000840B950B39F40A2661F0232B242B252B99
:102D700021F408950A2609F4A140A6958FEF811D3C
:102D8000811D089597F99F6780E870E060E00895DD
:102D9000882371F4772321F09850872B762F07C072
:102DA000662311F499270DC09051862B70E060E0E6
:102DB0002AF09A95660F771F881FDAF7880F969585
:102DC000879597F908959F3F31F0915020F48795AA
:102DD00077956795B795880F911D9695879597F983
:102DE00008959FEF80EC089500240A9416161706A4
:102DF00018060906089500240A94121613061406EC
:102E000005060895092E0394000C11F4882352F04E
:102E1000BB0F40F4BF2B11F460FF04C06F5F7F4F06
:102E20008F4F9F4F089557FD9058440F551F59F0ED
:102E30005F3F71F04795880F97FB991F61F09F3FA7
:102E400079F087950895121613061406551FF2CFD0
:102E50004695F1DF08C0161617061806991FF1CF20
:102E600086957105610508940895E5DFA0F0BEE739
:102E7000B91788F4BB279F3860F41616B11D672F69
:102E8000782F8827985FF7CF869577956795B11D3E
:102E900093959639C8F30895E894BB27662777275A
:102EA000CB0197F908950BD0ADCF9EDF28F0A3DFBB
:102EB00018F0952309F066CF94CF1124EECFB3DF3D
:102EC000A0F3959FD1F3950F50E0551F629FF0013D
:102ED000729FBB27F00DB11D639FAA27F00DB11D96
:102EE000AA1F649F6627B00DA11D661F829F22271F
:102EF000B00DA11D621F739FB00DA11D621F839FA6
:102F0000A00D611D221F749F3327A00D611D231F7B
:102F1000849F600D211D822F762F6A2F11249F57C9
:102F200050408AF0E1F088234AF0EE0FFF1FBB1FEC
:102F3000661F771F881F91505040A9F79E3F51058B
:102F400070F020CFAACF5F3FECF3983EDCF386957C
:102F500077956795B795F795E7959F5FC1F7FE2B36
:102F6000880F911D9695879597F9089564DFE0F095
:102F70009E37D8F09639B8F49E3848F4672F782FEA
:102F80008827985FF9CF86957795679593959539BA
:102F9000D0F3B62FB1706B0F711D811D20F4879592
:102FA000779567959395F4CE0ECF77CF97FB072E45
:102FB00016F4009407D077FD09D00E94431807FC4F
:102FC00005D03EF4909581959F4F08957095619539
:102FD0007F4F0895A1E21A2EAA1BBB1BFD010DC055
:102FE000AA1FBB1FEE1FFF1FA217B307E407F507B9
:102FF00020F0A21BB30BE40BF50B661F771F881F95
:10300000991F1A9469F760957095809590959B012A
:10301000AC01BD01CF0108952F923F924F925F9274
:103020006F927F928F929F92AF92BF92CF92DF92D8
:10303000EF92FF920F931F93CF93DF93CDB7DEB73D
:10304000CA1BDB0B0FB6F894DEBF0FBECDBF0994D1
:103050002A88398848885F846E847D848C849B8428
:10306000AA84B984C884DF80EE80FD800C811B8136
:10307000AA81B981CE0FD11D0FB6F894DEBF0FBE65
:10308000CDBFED010895AA1BBB1B51E107C0AA1FCC
:10309000BB1FA617B70710F0A61BB70B881F991FF9
:1030A0005A95A9F780959095BC01CD0108952830D7
:1030B00008F027E03327DA01990F311D87FD916071
:1030C00000966105710539F432602E5F3D9330E35F
:1030D0002A95E1F708959F3F30F08038710561052A
:1030E00009F03C5F3C5F3D93913008F08068911D92
:1030F000DF93CF931F930F93FF92EF92192F987F37
:103100009695E92F96959695E90FFF27E456F84F87
:1031100099273327EE24FF24A701E701059008949F
:10312000079428F4360FE71EF81E491F511D660F3D
:10313000771F881F991F0694A1F70590079428F41C
:10314000E70EF81E491F561FC11D770F881F991FD4
:10315000661F0694A1F70590079428F4F80E491FFE
:10316000561FC71FD11D880F991F661F771F069412
:10317000A1F70590079420F4490F561FC71FD81FC9
:10318000990F661F771F881F0694A9F784911095E1
:10319000177041F0D695C79557954795F794E794E2
:1031A0001A95C1F7E2E4F7E068941590159135910E
:1031B0006591959105907FE27395E118F10A430BB3
:1031C000560BC90BD009C0F7E10CF11E431F561F67
:1031D000C91FD01D7EF4703311F48A95E6CFE894B0
:1031E000015030F0080F0AF40027021708F4202FCE
:1031F0002395022F7A3328F079E37D932A95E9F716
:1032000010C07D932A9589F6069497956795379512
:1032100017951794E118F10A430B560BC90BD00907
:1032200098F023957E9173957A3308F070E37C9340
:103230002013B8F77E9170617D9330F0839571E330
:103240007D9370E32A95E1F71124EF90FF900F91A1
:103250001F91CF91DF91992787FD90950895FC01EB
:103260000590615070400110D8F7809590958E0FB1
:103270009F1F0895FB01DC0102C001900D92415097
:103280005040D8F70895FC01615070400190011042
:10329000D8F7809590958E0F9F1F08950F931F93D9
:1032A000CF93DF93182F092FEB018B8181FD03C092
:1032B0008FEF9FEF20C082FF10C04E815F812C8175
:1032C0003D81421753077CF4E881F9819F012F5F0C
:1032D0003F4F39832883108306C0E885F985812F05
:1032E0000995892B29F72E813F812F5F3F4F3F831F
:1032F0002E83812F902FDF91CF911F910F910895F1
:10330000AEE0B0E0E6E8F9E10C941A180D891E89E8
:1033100086E08C831A8309838FEF9FE79E838D83DA
:10332000AE01475E5F4F6F89788DCE0101960E9496
:10333000B411EF81F885E00FF11F10822E96E4E0C2
:103340000C943618FA01AA27283051F1203181F166
:10335000E8946F936E7F6E5F7F4F8F4F9F4FAF4F9D
:10336000B1E03ED0B4E03CD0670F781F891F9A1FB0
:10337000A11D680F791F8A1F911DA11D6A0F711D64
:10338000811D911DA11D20D009F468943F912AE070
:10339000269F11243019305D3193DEF6CF01089558
:1033A000462F4770405D4193B3E00FD0C9F7F6CF89
:1033B000462F4F70405D4A3318F0495D31FD405251
:1033C000419302D0A9F7EACFB4E0A69597958795E7
:1033D00077956795BA95C9F70097610571050895C6
:1033E0009B01AC010A2E0694579547953795279572
:1033F000BA95C9F7620F731F841F951FA01D08950A
:04340000F894FFCF6E
:1034040000030B101416181B1D1F202121201F1F41
:103414001E1C1B191816150F101014181A1C1F2126
:103424002121212121201D1B1917161616171718E3
:1034340019191A1B1D1F201F1F1F1F1F1E1C1B19BC
:1034440018181A1C1D1E1F20201F1B17120F0D0BEE
:1034540009090E161F2528282523221E17100D0ED4
:103464000E0E0C0B0F161B2022222121201E1A15D2
:10347400100D0C0B0C0E0F113B9DCF02000101002F
:103484000103C00FC00FC00FC00FC00FC00FC00F8B
:10349400320E320E320E00330123061410081F02BE
:1034A400310040024D0957185D2C48656C6C6F0063
:1034B40025750025302E33640025302E33750030F9
:1034C40078255800253032753A253032753A253042
:0434D400327500004D
:00000001FF
